{
  "contractName": "wallet",
  "abi": [
    {
      "inputs": [],
      "payable": false,
      "stateMutability": "nonpayable",
      "type": "constructor"
    },
    {
      "constant": true,
      "inputs": [
        {
          "internalType": "uint256",
          "name": "",
          "type": "uint256"
        }
      ],
      "name": "transactionsMapping",
      "outputs": [
        {
          "internalType": "uint256",
          "name": "TransactionID",
          "type": "uint256"
        },
        {
          "internalType": "string",
          "name": "Description",
          "type": "string"
        },
        {
          "internalType": "uint256",
          "name": "MunicipalityID",
          "type": "uint256"
        },
        {
          "internalType": "uint256",
          "name": "Department",
          "type": "uint256"
        },
        {
          "internalType": "uint256",
          "name": "amount",
          "type": "uint256"
        },
        {
          "internalType": "string",
          "name": "Sender",
          "type": "string"
        },
        {
          "internalType": "string",
          "name": "Receiver",
          "type": "string"
        },
        {
          "internalType": "string",
          "name": "TransactionDate",
          "type": "string"
        }
      ],
      "payable": false,
      "stateMutability": "view",
      "type": "function"
    },
    {
      "constant": true,
      "inputs": [],
      "name": "txnCount",
      "outputs": [
        {
          "internalType": "uint256",
          "name": "",
          "type": "uint256"
        }
      ],
      "payable": false,
      "stateMutability": "view",
      "type": "function"
    },
    {
      "constant": false,
      "inputs": [
        {
          "internalType": "uint256",
          "name": "_TransactionID",
          "type": "uint256"
        },
        {
          "internalType": "string",
          "name": "_Description",
          "type": "string"
        },
        {
          "internalType": "uint256",
          "name": "_MunicipalityID",
          "type": "uint256"
        },
        {
          "internalType": "uint256",
          "name": "_Department",
          "type": "uint256"
        },
        {
          "internalType": "uint256",
          "name": "_amount",
          "type": "uint256"
        },
        {
          "internalType": "string",
          "name": "_Sender",
          "type": "string"
        },
        {
          "internalType": "string",
          "name": "_Receiver",
          "type": "string"
        },
        {
          "internalType": "string",
          "name": "_TransactionDate",
          "type": "string"
        }
      ],
      "name": "createTxn",
      "outputs": [],
      "payable": false,
      "stateMutability": "nonpayable",
      "type": "function"
    },
    {
      "constant": true,
      "inputs": [
        {
          "internalType": "uint256",
          "name": "_txnID",
          "type": "uint256"
        }
      ],
      "name": "getTxnByID",
      "outputs": [
        {
          "internalType": "uint256",
          "name": "",
          "type": "uint256"
        },
        {
          "internalType": "string",
          "name": "",
          "type": "string"
        },
        {
          "internalType": "uint256",
          "name": "",
          "type": "uint256"
        },
        {
          "internalType": "uint256",
          "name": "",
          "type": "uint256"
        },
        {
          "internalType": "uint256",
          "name": "",
          "type": "uint256"
        },
        {
          "internalType": "string",
          "name": "",
          "type": "string"
        },
        {
          "internalType": "string",
          "name": "",
          "type": "string"
        },
        {
          "internalType": "string",
          "name": "",
          "type": "string"
        }
      ],
      "payable": false,
      "stateMutability": "view",
      "type": "function"
    }
  ],
  "bytecode": "0x608060405234801561001057600080fd5b506000600181905550610f64806100286000396000f3fe608060405234801561001057600080fd5b506004361061004c5760003560e01c80633b81da1f1461005157806378ce1365146102fa57806392af65e614610318578063a038b45d1461051f575b600080fd5b6102f8600480360361010081101561006857600080fd5b81019080803590602001909291908035906020019064010000000081111561008f57600080fd5b8201836020820111156100a157600080fd5b803590602001918460018302840111640100000000831117156100c357600080fd5b91908080601f016020809104026020016040519081016040528093929190818152602001838380828437600081840152601f19601f8201169050808301925050505050505091929192908035906020019092919080359060200190929190803590602001909291908035906020019064010000000081111561014457600080fd5b82018360208201111561015657600080fd5b8035906020019184600183028401116401000000008311171561017857600080fd5b91908080601f016020809104026020016040519081016040528093929190818152602001838380828437600081840152601f19601f820116905080830192505050505050509192919290803590602001906401000000008111156101db57600080fd5b8201836020820111156101ed57600080fd5b8035906020019184600183028401116401000000008311171561020f57600080fd5b91908080601f016020809104026020016040519081016040528093929190818152602001838380828437600081840152601f19601f8201169050808301925050505050505091929192908035906020019064010000000081111561027257600080fd5b82018360208201111561028457600080fd5b803590602001918460018302840111640100000000831117156102a657600080fd5b91908080601f016020809104026020016040519081016040528093929190818152602001838380828437600081840152601f19601f820116905080830192505050505050509192919290505050610726565b005b61030261082f565b6040518082815260200191505060405180910390f35b6103446004803603602081101561032e57600080fd5b8101908080359060200190929190505050610835565b604051808981526020018060200188815260200187815260200186815260200180602001806020018060200185810385528c818151815260200191508051906020019080838360005b838110156103a857808201518184015260208101905061038d565b50505050905090810190601f1680156103d55780820380516001836020036101000a031916815260200191505b50858103845288818151815260200191508051906020019080838360005b8381101561040e5780820151818401526020810190506103f3565b50505050905090810190601f16801561043b5780820380516001836020036101000a031916815260200191505b50858103835287818151815260200191508051906020019080838360005b83811015610474578082015181840152602081019050610459565b50505050905090810190601f1680156104a15780820380516001836020036101000a031916815260200191505b50858103825286818151815260200191508051906020019080838360005b838110156104da5780820151818401526020810190506104bf565b50505050905090810190601f1680156105075780820380516001836020036101000a031916815260200191505b509c5050505050505050505050505060405180910390f35b61054b6004803603602081101561053557600080fd5b8101908080359060200190929190505050610add565b604051808981526020018060200188815260200187815260200186815260200180602001806020018060200185810385528c818151815260200191508051906020019080838360005b838110156105af578082015181840152602081019050610594565b50505050905090810190601f1680156105dc5780820380516001836020036101000a031916815260200191505b50858103845288818151815260200191508051906020019080838360005b838110156106155780820151818401526020810190506105fa565b50505050905090810190601f1680156106425780820380516001836020036101000a031916815260200191505b50858103835287818151815260200191508051906020019080838360005b8381101561067b578082015181840152602081019050610660565b50505050905090810190601f1680156106a85780820380516001836020036101000a031916815260200191505b50858103825286818151815260200191508051906020019080838360005b838110156106e15780820151818401526020810190506106c6565b50505050905090810190601f16801561070e5780820380516001836020036101000a031916815260200191505b509c5050505050505050505050505060405180910390f35b6001600081548092919060010191905055506040518061010001604052808981526020018881526020018781526020018681526020018581526020018481526020018381526020018281525060008060015481526020019081526020016000206000820151816000015560208201518160010190805190602001906107ac929190610e45565b5060408201518160020155606082015181600301556080820151816004015560a08201518160050190805190602001906107e7929190610e45565b5060c0820151816006019080519060200190610804929190610e45565b5060e0820151816007019080519060200190610821929190610e45565b509050505050505050505050565b60015481565b6000602052806000526040600020600091509050806000015490806001018054600181600116156101000203166002900480601f0160208091040260200160405190810160405280929190818152602001828054600181600116156101000203166002900480156108e75780601f106108bc576101008083540402835291602001916108e7565b820191906000526020600020905b8154815290600101906020018083116108ca57829003601f168201915b505050505090806002015490806003015490806004015490806005018054600181600116156101000203166002900480601f0160208091040260200160405190810160405280929190818152602001828054600181600116156101000203166002900480156109975780601f1061096c57610100808354040283529160200191610997565b820191906000526020600020905b81548152906001019060200180831161097a57829003601f168201915b505050505090806006018054600181600116156101000203166002900480601f016020809104026020016040519081016040528092919081815260200182805460018160011615610100020316600290048015610a355780601f10610a0a57610100808354040283529160200191610a35565b820191906000526020600020905b815481529060010190602001808311610a1857829003601f168201915b505050505090806007018054600181600116156101000203166002900480601f016020809104026020016040519081016040528092919081815260200182805460018160011615610100020316600290048015610ad35780601f10610aa857610100808354040283529160200191610ad3565b820191906000526020600020905b815481529060010190602001808311610ab657829003601f168201915b5050505050905088565b60006060600080600060608060606000600190505b6001548111610e3857610b03610ec5565b6000808381526020019081526020016000206040518061010001604052908160008201548152602001600182018054600181600116156101000203166002900480601f016020809104026020016040519081016040528092919081815260200182805460018160011615610100020316600290048015610bc45780601f10610b9957610100808354040283529160200191610bc4565b820191906000526020600020905b815481529060010190602001808311610ba757829003601f168201915b50505050508152602001600282015481526020016003820154815260200160048201548152602001600582018054600181600116156101000203166002900480601f016020809104026020016040519081016040528092919081815260200182805460018160011615610100020316600290048015610c845780601f10610c5957610100808354040283529160200191610c84565b820191906000526020600020905b815481529060010190602001808311610c6757829003601f168201915b50505050508152602001600682018054600181600116156101000203166002900480601f016020809104026020016040519081016040528092919081815260200182805460018160011615610100020316600290048015610d265780601f10610cfb57610100808354040283529160200191610d26565b820191906000526020600020905b815481529060010190602001808311610d0957829003601f168201915b50505050508152602001600782018054600181600116156101000203166002900480601f016020809104026020016040519081016040528092919081815260200182805460018160011615610100020316600290048015610dc85780601f10610d9d57610100808354040283529160200191610dc8565b820191906000526020600020905b815481529060010190602001808311610dab57829003601f168201915b50505050508152505090508a81600001511415610e2a57806040015181602001518260400151836060015184608001518560a001518660c001518760e00151869650829250819150809050995099509950995099509950995099505050610e3a565b508080600101915050610af2565b505b919395975091939597565b828054600181600116156101000203166002900490600052602060002090601f016020900481019282601f10610e8657805160ff1916838001178555610eb4565b82800160010185558215610eb4579182015b82811115610eb3578251825591602001919060010190610e98565b5b509050610ec19190610f0a565b5090565b60405180610100016040528060008152602001606081526020016000815260200160008152602001600081526020016060815260200160608152602001606081525090565b610f2c91905b80821115610f28576000816000905550600101610f10565b5090565b9056fea265627a7a72315820cb969ccc6fb8294f441800b691852814becaff57978ad8bb1a12f364bdc456f264736f6c63430005100032",
  "source": "// SPDX-License-Identifier: MIT\npragma solidity >=0.4.21 <0.7.0;\n\ncontract wallet {\n    struct walletStruct {\n        uint256 TransactionID;\n        string Description;\n        uint256 MunicipalityID;\n        uint256 Department;\n        uint256 amount;\n        string Sender;\n        string Receiver;\n        string TransactionDate;\n    }\n\n    mapping(uint256 => walletStruct) public transactionsMapping;\n    uint256 public txnCount;\n\n    constructor() public {\n        txnCount = 0;\n    }\n\n    function createTxn(\n        uint256 _TransactionID,\n        string memory _Description,\n        uint256 _MunicipalityID,\n        uint256 _Department,\n        uint256 _amount,\n        string memory _Sender,\n        string memory _Receiver,\n        string memory _TransactionDate\n    ) public {\n        txnCount++;\n        transactionsMapping[txnCount] = walletStruct(\n            _TransactionID,\n            _Description,\n            _MunicipalityID,\n            _Department,\n            _amount,\n            _Sender,\n            _Receiver,\n            _TransactionDate\n        );\n    }\n\n    function getTxnByID(uint256 _txnID)\n        public\n        view\n        returns (\n            uint256,\n            string memory,\n            uint256,\n            uint256,\n            uint256,\n            string memory,\n            string memory,\n            string memory\n        )\n    {\n        for (uint256 i = 1; i <= txnCount; i++) {\n            walletStruct memory _walletStruct = transactionsMapping[i];\n            if (_walletStruct.TransactionID == _txnID) {\n                return (\n                    _walletStruct.MunicipalityID,\n                    _walletStruct.Description,\n                    _walletStruct.MunicipalityID,\n                    _walletStruct.Department,\n                    _walletStruct.amount,\n                    _walletStruct.Sender,\n                    _walletStruct.Receiver,\n                    _walletStruct.TransactionDate\n                );\n            }\n        }\n    }\n}\n",
  "sourcePath": "/Users/macpro/Documents/usecases/walletapp/contracts/Wallet.sol",
  "compiler": {
    "name": "solc",
    "version": "0.5.16+commit.9c3226ce.Emscripten.clang"
  },
  "schemaVersion": "3.3.2",
  "updatedAt": "2021-01-26T19:10:02.908Z",
  "networkType": "ethereum",
  "devdoc": {
    "methods": {}
  },
  "userdoc": {
    "methods": {}
  }
}